{
  "_format": "hh-sol-artifact-1",
  "contractName": "task",
  "sourceName": "contracts/task.sol",
  "abi": [
    {
      "inputs": [],
      "stateMutability": "nonpayable",
      "type": "constructor"
    },
    {
      "inputs": [
        {
          "internalType": "uint8",
          "name": "id",
          "type": "uint8"
        }
      ],
      "name": "fetchUserInfo",
      "outputs": [
        {
          "components": [
            {
              "internalType": "string",
              "name": "name",
              "type": "string"
            },
            {
              "internalType": "uint8",
              "name": "age",
              "type": "uint8"
            }
          ],
          "internalType": "struct task.User",
          "name": "",
          "type": "tuple"
        }
      ],
      "stateMutability": "view",
      "type": "function"
    },
    {
      "inputs": [],
      "name": "getTotalSubmissions",
      "outputs": [
        {
          "internalType": "uint256",
          "name": "",
          "type": "uint256"
        }
      ],
      "stateMutability": "view",
      "type": "function"
    },
    {
      "inputs": [
        {
          "internalType": "string",
          "name": "userName",
          "type": "string"
        },
        {
          "internalType": "uint8",
          "name": "userAge",
          "type": "uint8"
        }
      ],
      "name": "submit",
      "outputs": [],
      "stateMutability": "nonpayable",
      "type": "function"
    }
  ],
  "bytecode": "0x608060405234801561001057600080fd5b50610b76806100206000396000f3fe608060405234801561001057600080fd5b50600436106100415760003560e01c8063225ed95e1461004657806354554d4614610076578063816ff67c14610094575b600080fd5b610060600480360381019061005b9190610491565b6100b0565b60405161006d919061059a565b60405180910390f35b61007e61018f565b60405161008b91906105d5565b60405180910390f35b6100ae60048036038101906100a99190610655565b6101bd565b005b6100b8610431565b600160008360ff1681526020019081526020016000206040518060400160405290816000820180546100e9906106e4565b80601f0160208091040260200160405190810160405280929190818152602001828054610115906106e4565b80156101625780601f1061013757610100808354040283529160200191610162565b820191906000526020600020905b81548152906001019060200180831161014557829003601f168201915b505050505081526020016001820160009054906101000a900460ff1660ff1660ff16815250509050919050565b60006101b5604051806060016040528060228152602001610b1f602291396000546102cd565b600054905090565b60016000808282546101cf9190610744565b925050819055506000604051806040016040528085858080601f016020809104026020016040519081016040528093929190818152602001838380828437600081840152601f19601f8201169050808301925050505050505081526020018360ff16815250905080600160008054815260200190815260200160002060008201518160000190816102609190610953565b5060208201518160010160006101000a81548160ff021916908360ff1602179055509050506102c76040518060400160405280601981526020017f257320686173207375626d69747465642e206964203a2025640000000000000081525033600054610369565b50505050565b61036582826040516024016102e3929190610a6f565b6040516020818303038152906040527fb60e72cc000000000000000000000000000000000000000000000000000000007bffffffffffffffffffffffffffffffffffffffffffffffffffffffff19166020820180517bffffffffffffffffffffffffffffffffffffffffffffffffffffffff8381831617835250505050610408565b5050565b61040383838360405160240161038193929190610ae0565b6040516020818303038152906040527f0d26b925000000000000000000000000000000000000000000000000000000007bffffffffffffffffffffffffffffffffffffffffffffffffffffffff19166020820180517bffffffffffffffffffffffffffffffffffffffffffffffffffffffff8381831617835250505050610408565b505050565b60008151905060006a636f6e736f6c652e6c6f679050602083016000808483855afa5050505050565b604051806040016040528060608152602001600060ff1681525090565b600080fd5b600080fd5b600060ff82169050919050565b61046e81610458565b811461047957600080fd5b50565b60008135905061048b81610465565b92915050565b6000602082840312156104a7576104a661044e565b5b60006104b58482850161047c565b91505092915050565b600081519050919050565b600082825260208201905092915050565b60005b838110156104f85780820151818401526020810190506104dd565b60008484015250505050565b6000601f19601f8301169050919050565b6000610520826104be565b61052a81856104c9565b935061053a8185602086016104da565b61054381610504565b840191505092915050565b61055781610458565b82525050565b6000604083016000830151848203600086015261057a8282610515565b915050602083015161058f602086018261054e565b508091505092915050565b600060208201905081810360008301526105b4818461055d565b905092915050565b6000819050919050565b6105cf816105bc565b82525050565b60006020820190506105ea60008301846105c6565b92915050565b600080fd5b600080fd5b600080fd5b60008083601f840112610615576106146105f0565b5b8235905067ffffffffffffffff811115610632576106316105f5565b5b60208301915083600182028301111561064e5761064d6105fa565b5b9250929050565b60008060006040848603121561066e5761066d61044e565b5b600084013567ffffffffffffffff81111561068c5761068b610453565b5b610698868287016105ff565b935093505060206106ab8682870161047c565b9150509250925092565b7f4e487b7100000000000000000000000000000000000000000000000000000000600052602260045260246000fd5b600060028204905060018216806106fc57607f821691505b60208210810361070f5761070e6106b5565b5b50919050565b7f4e487b7100000000000000000000000000000000000000000000000000000000600052601160045260246000fd5b600061074f826105bc565b915061075a836105bc565b925082820190508082111561077257610771610715565b5b92915050565b7f4e487b7100000000000000000000000000000000000000000000000000000000600052604160045260246000fd5b60008190508160005260206000209050919050565b60006020601f8301049050919050565b600082821b905092915050565b6000600883026108097fffffffffffffffffffffffffffffffffffffffffffffffffffffffffffffffff826107cc565b61081386836107cc565b95508019841693508086168417925050509392505050565b6000819050919050565b600061085061084b610846846105bc565b61082b565b6105bc565b9050919050565b6000819050919050565b61086a83610835565b61087e61087682610857565b8484546107d9565b825550505050565b600090565b610893610886565b61089e818484610861565b505050565b5b818110156108c2576108b760008261088b565b6001810190506108a4565b5050565b601f821115610907576108d8816107a7565b6108e1846107bc565b810160208510156108f0578190505b6109046108fc856107bc565b8301826108a3565b50505b505050565b600082821c905092915050565b600061092a6000198460080261090c565b1980831691505092915050565b60006109438383610919565b9150826002028217905092915050565b61095c826104be565b67ffffffffffffffff81111561097557610974610778565b5b61097f82546106e4565b61098a8282856108c6565b600060209050601f8311600181146109bd57600084156109ab578287015190505b6109b58582610937565b865550610a1d565b601f1984166109cb866107a7565b60005b828110156109f3578489015182556001820191506020850194506020810190506109ce565b86831015610a105784890151610a0c601f891682610919565b8355505b6001600288020188555050505b505050505050565b600082825260208201905092915050565b6000610a41826104be565b610a4b8185610a25565b9350610a5b8185602086016104da565b610a6481610504565b840191505092915050565b60006040820190508181036000830152610a898185610a36565b9050610a9860208301846105c6565b9392505050565b600073ffffffffffffffffffffffffffffffffffffffff82169050919050565b6000610aca82610a9f565b9050919050565b610ada81610abf565b82525050565b60006060820190508181036000830152610afa8186610a36565b9050610b096020830185610ad1565b610b1660408301846105c6565b94935050505056fe7765206861766520746f74616c20256420746f74616c207375626d697373696f6e73a2646970667358221220dae544d93999d367838b52110a315a4abb6e30b8de7b6e613ce05b05bc9a8a3864736f6c63430008110033",
  "linkReferences": {},
  "deployedLinkReferences": {}
}